{"author":"0xdb1c683758f493cef2e7089a3640502ab306322a","difficulty":"0xfffffffffffffffffffffffffffffffe","extraData":"0xdb830302058c4f70656e457468657265756d86312e34372e30826c69","gasLimit":"0x1036620","gasUsed":"0x18f826","hash":"0x9ca16ef6b945499ba82c2a5b8624d69c4ec6e46fa762ea0a236b2a8852b7b4e1","logsBloom":"0x000060000a00000400c0212000800400000040002800000000000048208000210000020400000108004004080480002212300104040200000000800000800002100000001021200002000408082030042200009801000c0000100000000000100080001003000160a0000800000008004000820004004000041000101202000000000000000000200000018802000a5840001c80820148024308c0000000000100008201100000001000002001102000880c00004004000000000000080000814000100702000080000808000101021c042004080004000000000080004420080000000000040040020000000020000100000000400000000010400020008040","miner":"0xdb1c683758f493cef2e7089a3640502ab306322a","number":"0xf68103","parentHash":"0x560578070c996ca1b81cad6fd12faf091ea959deeea7b799eb6c8e31b4443dcf","receiptsRoot":"0x4a892c9a7c9dad26a529fa6652ec27ab633c95577f209b5cae37855098ff524d","sealFields":["0x8413549056","0xb841c9c883adc3d015b5ed08ac857a83096b7df07a074b8e60c56c2f39414ed2590755b72a19521ef8b1ae64e9543e96eba88212acea65a87a8b487b598d773da26a00"],"sha3Uncles":"0x1dcc4de8dec75d7aab85b567b6ccd41ad312451b948a7413f0a142fd40d49347","signature":"c9c883adc3d015b5ed08ac857a83096b7df07a074b8e60c56c2f39414ed2590755b72a19521ef8b1ae64e9543e96eba88212acea65a87a8b487b598d773da26a00","size":"0xb79","stateRoot":"0x06f2ce0ea3e629450b61f5ec51abdd252e476867724d342c8d731908131b1876","step":"324309078","timestamp":"0x60a6d1ae","totalDifficulty":"0xf68102ffffffffffffffffffffffffebb6eea7","transactions":[{"blockHash":"0x9ca16ef6b945499ba82c2a5b8624d69c4ec6e46fa762ea0a236b2a8852b7b4e1","blockNumber":"0xf68103","chainId":"0x64","condition":null,"creates":null,"from":"0xfedb903e5a5150cf0a58d01148c5ad0ced8a5210","gas":"0x1e8480","gasPrice":"0x62058e3200","hash":"0xc35a226dff512ec69bf5c9fd11d3b8fcda632150e521ddc4ac0e6a27941f6e4e","input":"0x893d242d000000000000000000000000fcae57db10356fcf76b6476b21ac14c504a45128000000000000000000000000000000000000000000000000000000000000000000000000000000000000000000000000000000000000001dfa08b0634100f9e00000000000000000000000000000000000000000000000008ac7230489e800000000000000000000000000000000000000000000000000000000000000000000","nonce":"0x4175","publicKey":"0x29f016a0c2a22b3ebaf2d2a75ccb200ea26d268239ebba88805294aa8c31f253800df4c7d24808da19ab23570fe4c8d0234f5cfe652ced7bccf3fa27daf19f27","r":"0x46404a45d522f55d7507124ff4531ba9e68ee10c5e4a85b5d7de2db3ce2def1a","raw":"0xf9010d8241758562058e3200831e8480945d9593586b4b5edbd23e7eba8d88fd8f09d83ebd80b8a4893d242d000000000000000000000000fcae57db10356fcf76b6476b21ac14c504a45128000000000000000000000000000000000000000000000000000000000000000000000000000000000000000000000000000000000000001dfa08b0634100f9e00000000000000000000000000000000000000000000000008ac7230489e80000000000000000000000000000000000000000000000000000000000000000000081eba046404a45d522f55d7507124ff4531ba9e68ee10c5e4a85b5d7de2db3ce2def1aa07525501a7649c0d0f6be78712f6e616387c43a407cb5ce071c67cf47413959a5","s":"0x7525501a7649c0d0f6be78712f6e616387c43a407cb5ce071c67cf47413959a5","standardV":"0x0","to":"0x5d9593586b4b5edbd23e7eba8d88fd8f09d83ebd","transactionIndex":"0x0","v":"0xeb","value":"0x0"},{"blockHash":"0x9ca16ef6b945499ba82c2a5b8624d69c4ec6e46fa762ea0a236b2a8852b7b4e1","blockNumber":"0xf68103","chainId":"0x64","condition":null,"creates":null,"from":"0x2607e6f021922a5483d64935f87e15ea797fe8d4","gas":"0x7a120","gasPrice":"0x6fc23ac00","hash":"0xe0fc964aa9f4865dd874c37fea05f7a521c9dfeae9a1acee956f03bcb4a4fa55","input":"0x202ee0ed0000000000000000000000000000000000000000000000000000000000002fe40000000000000000000000000000000000000000000000000000000007b9bb3a","nonce":"0x1b2d1","publicKey":"0xdeaddffddf1491514d68a65b57ef18422d2c00c2ee7288854cfa26dfb76b128bb2f7f76eb8a8d3ce6a3a6645ad237a482000e9053c98bf0973139421721c4320","r":"0x6a915aab6f70890f54edfc315f39ca1e3348e958a34f37603da576ebe39fd706","raw":"0xf8ae8301b2d18506fc23ac008307a120941fb426a9177b450b2a17966d272ac09f7caf550680b844202ee0ed0000000000000000000000000000000000000000000000000000000000002fe40000000000000000000000000000000000000000000000000000000007b9bb3a81eca06a915aab6f70890f54edfc315f39ca1e3348e958a34f37603da576ebe39fd706a050be2a17c6ff5b64cdaeb8e9ea0ec7fc690391ce3858a285dfd1a0d6e673a78f","s":"0x50be2a17c6ff5b64cdaeb8e9ea0ec7fc690391ce3858a285dfd1a0d6e673a78f","standardV":"0x1","to":"0x1fb426a9177b450b2a17966d272ac09f7caf5506","transactionIndex":"0x1","v":"0xec","value":"0x0"},{"blockHash":"0x9ca16ef6b945499ba82c2a5b8624d69c4ec6e46fa762ea0a236b2a8852b7b4e1","blockNumber":"0xf68103","chainId":"0x64","condition":null,"creates":null,"from":"0x32cbe102400a1b8a430232d7ccad3e75ab73c1f2","gas":"0x7a120","gasPrice":"0x6fc23ac00","hash":"0xbe15661df5ea6e0ed648ab9b6412e0fc874cd9402198e0c3cd8a27752947fadf","input":"0x202ee0ed0000000000000000000000000000000000000000000000000000000000002de60000000000000000000000000000000000000000000000000000005bdbf09100","nonce":"0x43ebc","publicKey":"0xdfcaa81ebad93d01fba12cf8a566dbadf3af4f80804ed79753fdb032661a993251c24709f9e788486aebceb3d56edddb4683f4f72124be713136d5603a86ae03","r":"0xa14779c427fcb71732d4df4b42ec9d796a1d03fe587061b528ff2b90f0b43b3c","raw":"0xf8ae83043ebc8506fc23ac008307a1209451d2be12a980c79ccffa8cbfb078d6cad96f971f80b844202ee0ed0000000000000000000000000000000000000000000000000000000000002de60000000000000000000000000000000000000000000000000000005bdbf0910081eba0a14779c427fcb71732d4df4b42ec9d796a1d03fe587061b528ff2b90f0b43b3ca010c477859eb232bf2e24af87885e5a2bef548d90db8a52171a3c393c6be73208","s":"0x10c477859eb232bf2e24af87885e5a2bef548d90db8a52171a3c393c6be73208","standardV":"0x0","to":"0x51d2be12a980c79ccffa8cbfb078d6cad96f971f","transactionIndex":"0x2","v":"0xeb","value":"0x0"},{"blockHash":"0x9ca16ef6b945499ba82c2a5b8624d69c4ec6e46fa762ea0a236b2a8852b7b4e1","blockNumber":"0xf68103","chainId":"0x64","condition":null,"creates":null,"from":"0x0184ee351e270fb0942c5cb66f0ff37bf4d37d3e","gas":"0x7a120","gasPrice":"0x6fc23ac00","hash":"0x1f963f5513f8bc6af2309288dd15bdc15ca4d37a5e3a5447e6c86f09f07b817e","input":"0x202ee0ed0000000000000000000000000000000000000000000000000000000000002de60000000000000000000000000000000000000000000000000000005c56c66aa5","nonce":"0x46cd9","publicKey":"0x830a24c6ebbd216ae312dc20831ff21e029bbfde027c3cbb677058c65bcb603724fcde8a9b21d74a310993a7b21a0cea2442a40f498607cce9444c369e92c2fd","r":"0xdccd68b616431583b4acad8cb5ea42038a6c0f5748bb5141cdf4693f78154a34","raw":"0xf8ae83046cd98506fc23ac008307a1209451d2be12a980c79ccffa8cbfb078d6cad96f971f80b844202ee0ed0000000000000000000000000000000000000000000000000000000000002de60000000000000000000000000000000000000000000000000000005c56c66aa581eba0dccd68b616431583b4acad8cb5ea42038a6c0f5748bb5141cdf4693f78154a34a011886f49c8811a3881c69a46dc1cb7c2d0b646b0bad8983e4f8bf1998fff6243","s":"0x11886f49c8811a3881c69a46dc1cb7c2d0b646b0bad8983e4f8bf1998fff6243","standardV":"0x0","to":"0x51d2be12a980c79ccffa8cbfb078d6cad96f971f","transactionIndex":"0x3","v":"0xeb","value":"0x0"},{"blockHash":"0x9ca16ef6b945499ba82c2a5b8624d69c4ec6e46fa762ea0a236b2a8852b7b4e1","blockNumber":"0xf68103","chainId":"0x64","condition":null,"creates":null,"from":"0x12d61a95cf55e18d267c2f1aa67d8e42ae1368f8","gas":"0x7a120","gasPrice":"0x6fc23ac00","hash":"0x091687d7ac0041202df7f1e2ff9881fc118b04dce0b52349535dc07cc2a296de","input":"0x202ee0ed0000000000000000000000000000000000000000000000000000000000002de60000000000000000000000000000000000000000000000000000005c3c520740","nonce":"0x47bc2","publicKey":"0xa9bb77968e260da220281b7af5aa3bfe37154783e06008e6cae461c3363b65393ed339980d65b1b0b2d7513bcf117c7018b568a2a03742ac6f235be9014f61dc","r":"0xbdcea8363244349bbc105bb2d99e387cd430fddd4aaaa2aa371602c35a517948","raw":"0xf8ae83047bc28506fc23ac008307a1209451d2be12a980c79ccffa8cbfb078d6cad96f971f80b844202ee0ed0000000000000000000000000000000000000000000000000000000000002de60000000000000000000000000000000000000000000000000000005c3c52074081eca0bdcea8363244349bbc105bb2d99e387cd430fddd4aaaa2aa371602c35a517948a010541c5102a81ae91d87ef6028ff010ea2bc72d1109d8a99206b623a168a740a","s":"0x10541c5102a81ae91d87ef6028ff010ea2bc72d1109d8a99206b623a168a740a","standardV":"0x1","to":"0x51d2be12a980c79ccffa8cbfb078d6cad96f971f","transactionIndex":"0x4","v":"0xec","value":"0x0"},{"blockHash":"0x9ca16ef6b945499ba82c2a5b8624d69c4ec6e46fa762ea0a236b2a8852b7b4e1","blockNumber":"0xf68103","chainId":"0x64","condition":null,"creates":null,"from":"0xfc7c442154c04c31203e2b94b96fd57c44ac003d","gas":"0x7a120","gasPrice":"0x6fc23ac00","hash":"0x428ef779c64d1285a21d0893e417526c416698fa4115ee558a936690d13e0291","input":"0x202ee0ed0000000000000000000000000000000000000000000000000000000000002de60000000000000000000000000000000000000000000000000000005bf77f1440","nonce":"0x3895a","publicKey":"0xfd739816a441c1acce650560960fd62edfd77b90a0f5183e848e82f4719364fe9811b5b7017b7ebd6cbff4f3fcdb3071057cda7bd056798f2a0d2fc927b8a765","r":"0xb0d8611363193622adf78067465d7042d15edef822eba025784263e1437a60ca","raw":"0xf8ae8303895a8506fc23ac008307a1209451d2be12a980c79ccffa8cbfb078d6cad96f971f80b844202ee0ed0000000000000000000000000000000000000000000000000000000000002de60000000000000000000000000000000000000000000000000000005bf77f144081eca0b0d8611363193622adf78067465d7042d15edef822eba025784263e1437a60caa02603f4f4ddce59f0cfde58833f64317bd15ca091cc30d97fb0f424baac220aa4","s":"0x2603f4f4ddce59f0cfde58833f64317bd15ca091cc30d97fb0f424baac220aa4","standardV":"0x1","to":"0x51d2be12a980c79ccffa8cbfb078d6cad96f971f","transactionIndex":"0x5","v":"0xec","value":"0x0"},{"blockHash":"0x9ca16ef6b945499ba82c2a5b8624d69c4ec6e46fa762ea0a236b2a8852b7b4e1","blockNumber":"0xf68103","chainId":"0x64","condition":null,"creates":null,"from":"0xfc7c442154c04c31203e2b94b96fd57c44ac003d","gas":"0x7a120","gasPrice":"0x6fc23ac00","hash":"0x27c6f430a54c9e59b430b91363c1d28b8fa31b5a334a303059a72021824e4c8d","input":"0x202ee0ed0000000000000000000000000000000000000000000000000000000000003612000000000000000000000000000000000000000000000000000000005fe4da42","nonce":"0x3895b","publicKey":"0xfd739816a441c1acce650560960fd62edfd77b90a0f5183e848e82f4719364fe9811b5b7017b7ebd6cbff4f3fcdb3071057cda7bd056798f2a0d2fc927b8a765","r":"0x597f2caa15b204bdd2016853d35283f3dec2c8d13cba943eb35f1e91c6f9cf89","raw":"0xf8ae8303895b8506fc23ac008307a12094ed8bfc7722e85762354d06cbe974456977a2360180b844202ee0ed0000000000000000000000000000000000000000000000000000000000003612000000000000000000000000000000000000000000000000000000005fe4da4281eca0597f2caa15b204bdd2016853d35283f3dec2c8d13cba943eb35f1e91c6f9cf89a04c382726e60ab5bd0f20fa49207a3a255c6e979146450c697b23dc28b3df1c7b","s":"0x4c382726e60ab5bd0f20fa49207a3a255c6e979146450c697b23dc28b3df1c7b","standardV":"0x1","to":"0xed8bfc7722e85762354d06cbe974456977a23601","transactionIndex":"0x6","v":"0xec","value":"0x0"},{"blockHash":"0x9ca16ef6b945499ba82c2a5b8624d69c4ec6e46fa762ea0a236b2a8852b7b4e1","blockNumber":"0xf68103","chainId":"0x64","condition":null,"creates":null,"from":"0xfc7c442154c04c31203e2b94b96fd57c44ac003d","gas":"0x7a120","gasPrice":"0x6fc23ac00","hash":"0xf1e9fb27e3300cea0ddcfe8d6f5cd8b9152b4792539ae9b2e9e99222f9d0c287","input":"0x202ee0ed00000000000000000000000000000000000000000000000000000000000037e700000000000000000000000000000000000000000000000000000040ba3c9c0f","nonce":"0x3895c","publicKey":"0xfd739816a441c1acce650560960fd62edfd77b90a0f5183e848e82f4719364fe9811b5b7017b7ebd6cbff4f3fcdb3071057cda7bd056798f2a0d2fc927b8a765","r":"0x5eef8356c8aef7a6461717a03723f3d23cc219eb37b10bdad4737b135cdfce18","raw":"0xf8ae8303895c8506fc23ac008307a1209444513922bf52cec40a0557797b040805ded5014080b844202ee0ed00000000000000000000000000000000000000000000000000000000000037e700000000000000000000000000000000000000000000000000000040ba3c9c0f81eba05eef8356c8aef7a6461717a03723f3d23cc219eb37b10bdad4737b135cdfce18a0339f18f00dfbe093336a408578d4f56141bd29ca1897171a5d80ee6b07234dfb","s":"0x339f18f00dfbe093336a408578d4f56141bd29ca1897171a5d80ee6b07234dfb","standardV":"0x0","to":"0x44513922bf52cec40a0557797b040805ded50140","transactionIndex":"0x7","v":"0xeb","value":"0x0"},{"blockHash":"0x9ca16ef6b945499ba82c2a5b8624d69c4ec6e46fa762ea0a236b2a8852b7b4e1","blockNumber":"0xf68103","chainId":"0x64","condition":null,"creates":null,"from":"0x6d04b8db14b5a891f9aa1e32c093584815291551","gas":"0x7a120","gasPrice":"0xb2d05e05","hash":"0xeb6ea0cc1969e7c7fc8092d6b4d0d6178becd72e0cd26c7f1adb297bc8ad16a5","input":"0x202ee0ed0000000000000000000000000000000000000000000000000000000000002de60000000000000000000000000000000000000000000000000000005bf77f1440","nonce":"0x45fd7","publicKey":"0xd44014ab4331aa1e5b9942c538debf11764d6d4461be71a0923e3dd9ad67722894b703a89a2bd9803559dbd2e36061a2bfc1b2a632b19698ede76ef573066518","r":"0x56cbefcc8a84e08fefee83158c06e46bfd685f5684f9aee89012a78aa3710729","raw":"0xf8ad83045fd784b2d05e058307a1209451d2be12a980c79ccffa8cbfb078d6cad96f971f80b844202ee0ed0000000000000000000000000000000000000000000000000000000000002de60000000000000000000000000000000000000000000000000000005bf77f144081eca056cbefcc8a84e08fefee83158c06e46bfd685f5684f9aee89012a78aa3710729a053e9ebf98d8ed86534f34f5a0ebbc4a16368aeb0ba986708cdb82f940b8c650a","s":"0x53e9ebf98d8ed86534f34f5a0ebbc4a16368aeb0ba986708cdb82f940b8c650a","standardV":"0x1","to":"0x51d2be12a980c79ccffa8cbfb078d6cad96f971f","transactionIndex":"0x8","v":"0xec","value":"0x0"},{"blockHash":"0x9ca16ef6b945499ba82c2a5b8624d69c4ec6e46fa762ea0a236b2a8852b7b4e1","blockNumber":"0xf68103","chainId":"0x64","condition":null,"creates":null,"from":"0x0b055c1a0f95c5ecc3c8add4f964a1c6f419a087","gas":"0x493e0","gasPrice":"0x3b9aca00","hash":"0xf9f48f72d0785344c64794825e860181b2beff4731c3e5be025b2bba079ded39","input":"0x9bd9bbc600000000000000000000000011fa44a5d1c30a4b7b5b5dc5394bd4bf77fc733d0000000000000000000000000000000000000000000000000de0b6b3a7640000000000000000000000000000000000000000000000000000000000000000006000000000000000000000000000000000000000000000000000000000000000400000000000000000000000000b055c1a0f95c5ecc3c8add4f964a1c6f419a087000000000000000000000000871e444b8399ffdd67f0fa983314e07b11f0aeb9","nonce":"0x6f0","publicKey":"0x161a7db185d8a00145b2e2b1444b4b5ca61fc20c935cee357c26d3de76bff6deffe78ca53345e143f997912a9dceeff29539a8089c3457ff6bff9d8cfc3ab311","r":"0x1b00d35008d6e3029245cb10957ad0a88e48ed1729cf092037a20280a558b92","raw":"0xf9012c8206f0843b9aca00830493e094d4fdec44db9d44b8f2b6d529620f9c0c7066a2c180b8c49bd9bbc600000000000000000000000011fa44a5d1c30a4b7b5b5dc5394bd4bf77fc733d0000000000000000000000000000000000000000000000000de0b6b3a7640000000000000000000000000000000000000000000000000000000000000000006000000000000000000000000000000000000000000000000000000000000000400000000000000000000000000b055c1a0f95c5ecc3c8add4f964a1c6f419a087000000000000000000000000871e444b8399ffdd67f0fa983314e07b11f0aeb981eba001b00d35008d6e3029245cb10957ad0a88e48ed1729cf092037a20280a558b92a0459a36d0eb9b2468bdb800bfaa83eff53c54db17364cb472eac97bd5053712a9","s":"0x459a36d0eb9b2468bdb800bfaa83eff53c54db17364cb472eac97bd5053712a9","standardV":"0x0","to":"0xd4fdec44db9d44b8f2b6d529620f9c0c7066a2c1","transactionIndex":"0x9","v":"0xeb","value":"0x0"},{"blockHash":"0x9ca16ef6b945499ba82c2a5b8624d69c4ec6e46fa762ea0a236b2a8852b7b4e1","blockNumber":"0xf68103","chainId":"0x64","condition":null,"creates":null,"from":"0x9bafab8f854f3f1d9593955bcf921519c8a562c6","gas":"0x1810da","gasPrice":"0x0","hash":"0xb740c4a1b23286e118fb438b7de412af2a831bbd6d4c1d950d867a81acb82be2","input":"0xe7a2c01f000000000000000000000000000000000000000000000000000000000000002000000000000000000000000000000000000000000000000000000000000000b5000500001afbd91a6277870760edc2f5157d448b1d9709780000000000001c39f0b456250dc9990662a6f25808cc74a6d1131ea959447362798334d3485c64d1e4870fde2ddc0d75000927c00101003864125e4cfb0000000000000000000000008ac76a51cc950d9822d68b83fe1ad97b32cd580d000000000000000000000000421472b612d4d4ac3d49a7d7f7dfdb5ebfe6d259000000000000000000000000000000000000000000000000457b558c66a4e6da0000000000000000000000","nonce":"0x25d8","publicKey":"0xea37ad6f1a1a7e7529e8b507521eb38bbf60f3893543f95d7e7fbcadaeeed001abf2c8b4c8b9f8b3c9443b355b48c0d37fc470db5686f56d9b68ac34f38c50bc","r":"0x7e495137d67ad7007d756e751e31a3c2c6e393d7d85800a169ebc5ce286a5245","raw":"0xf901698225d880831810da94162e898bd0aacb578c8d5f8d6ca588c13d2a383f80b90104e7a2c01f000000000000000000000000000000000000000000000000000000000000002000000000000000000000000000000000000000000000000000000000000000b5000500001afbd91a6277870760edc2f5157d448b1d9709780000000000001c39f0b456250dc9990662a6f25808cc74a6d1131ea959447362798334d3485c64d1e4870fde2ddc0d75000927c00101003864125e4cfb0000000000000000000000008ac76a51cc950d9822d68b83fe1ad97b32cd580d000000000000000000000000421472b612d4d4ac3d49a7d7f7dfdb5ebfe6d259000000000000000000000000000000000000000000000000457b558c66a4e6da000000000000000000000081eba07e495137d67ad7007d756e751e31a3c2c6e393d7d85800a169ebc5ce286a5245a00bbe526c1b12c61406350e21f01060e4abd519b19eafd3d4d72ea41dab7084f9","s":"0xbbe526c1b12c61406350e21f01060e4abd519b19eafd3d4d72ea41dab7084f9","standardV":"0x0","to":"0x162e898bd0aacb578c8d5f8d6ca588c13d2a383f","transactionIndex":"0xa","v":"0xeb","value":"0x0"}],"transactionsRoot":"0xd1b74b2674c74bbbc4b1d6cdad59ab34eb1b183e30baee380963d3d9a85901c5","uncles":[]}
