{"author":"0x1a740616e96e07d86203707c1619d9871614922a","difficulty":"0xfffffffffffffffffffffffffffffffe","extraData":"0x4e65746865726d696e64","gasLimit":"0x1036640","gasUsed":"0x17b12c","hash":"0xbf8f5472a84b626390fdd8d3d086db7431d4b2b73fcc00651cd8b64ed924695e","logsBloom":"0x0000000000000000000000000008000000040000001020000000000000803000000000000000000008040000001000000040000000020002000080040000000010000008000000000000000800000204200000000000002000000000000000001000000002000002800008000000000040040000240000000000081010000000000000000000000000000080000800000100048000000800000008000080000000000204800000000080004001000000000c00000020000000000001000000006000000220800200400000000000800c800000000000000000000002080000200000000000000000000000800000000000000000400000002000000001008000","miner":"0x1a740616e96e07d86203707c1619d9871614922a","number":"0xf7cfb4","parentHash":"0x152e312f1316e9d52b8c06f29a613d849778d06157a66f63f7d55b99bf4592c5","receiptsRoot":"0x6a7bd8eac17fd71922106868248e012f633393ea1f056fa17851105efe5ed831","sealFields":["0x841355e14c","0xb841f521fd3802ed84c728ccf82f6c0473546c9e6f0b69cd6bd13e07c0462b98933b2d06c1cd70910f0b5213890a0fbf30a6b06d4f8cdb9b48b96adf0a15e0f4a03800"],"sha3Uncles":"0x1dcc4de8dec75d7aab85b567b6ccd41ad312451b948a7413f0a142fd40d49347","signature":"f521fd3802ed84c728ccf82f6c0473546c9e6f0b69cd6bd13e07c0462b98933b2d06c1cd70910f0b5213890a0fbf30a6b06d4f8cdb9b48b96adf0a15e0f4a03800","size":"0x7e4","stateRoot":"0x78631fdd9a371aa96bffdd56ee0c09618e8128fad6f8eeb41e4b4fafd55b9331","step":"324395340","timestamp":"0x60ad667c","totalDifficulty":"0xf7cfb3ffffffffffffffffffffffffebb44f00","transactions":[{"blockHash":"0xbf8f5472a84b626390fdd8d3d086db7431d4b2b73fcc00651cd8b64ed924695e","blockNumber":"0xf7cfb4","chainId":"0x64","condition":null,"creates":null,"from":"0x1a740616e96e07d86203707c1619d9871614922a","gas":"0x186a00","gasPrice":"0x0","hash":"0x600edc7f2ac958d0b0e2e3e7597ab82f48197360d1bfbc7a394ded735506ab98","input":"0xfe7d567dd76cbb903d7fced216189dde0c5bb109963e1ea092fe8272371df4905312fdfd","nonce":"0x2ad28","publicKey":"0x453fcc51e68684152749200bd413d686fd0e5a051958623a016f2ead750d7572bfb96593679c9ac6a345cb60b51efeb30dc8f0181c6e013a83fb13c10cb5ecfe","r":"0x82e5cda987ea811bb4b7e8eb04e3eb60e2f305c729d79bea6d69cf08a0534304","raw":"0xf8888302ad288083186a00945870b0527dedb1cfbd9534343feda1a41ce4776680a4fe7d567dd76cbb903d7fced216189dde0c5bb109963e1ea092fe8272371df4905312fdfd81eca082e5cda987ea811bb4b7e8eb04e3eb60e2f305c729d79bea6d69cf08a0534304a00dba1e1592fb4fc375142e76c806071f3cca2c346cb47e5b36a60b2c40e5fd92","s":"0xdba1e1592fb4fc375142e76c806071f3cca2c346cb47e5b36a60b2c40e5fd92","standardV":"0x1","to":"0x5870b0527dedb1cfbd9534343feda1a41ce47766","transactionIndex":"0x0","v":"0xec","value":"0x0"},{"blockHash":"0xbf8f5472a84b626390fdd8d3d086db7431d4b2b73fcc00651cd8b64ed924695e","blockNumber":"0xf7cfb4","chainId":"0x64","condition":null,"creates":null,"from":"0x4562845f37813a201b9ddb52e57a902659b7ae6a","gas":"0x7a120","gasPrice":"0xdf8475800","hash":"0x8f4315256ba57ae68f3765d91b4739b548baa43b38e40f71e44140f08bf49d13","input":"0x202ee0ed0000000000000000000000000000000000000000000000000000000000003291000000000000000000000000000000000000000000000000000000096cd0e32a","nonce":"0x4f063","publicKey":"0x78a07313adbe2e1e8e09eadee442f6a995cfa466e6f97a4ac79017421d6a8e449f90b0d12fe66003a45ba998ecd69e3ea8ae49df0fe895b0f25d1a1f7ee5e7fb","r":"0x5bb30fef6ab8df1cc49343521932c3e0608ce362d3267c7cdc7e15f7fcc547c0","raw":"0xf8ae8304f063850df84758008307a12094fd7bc1308a6e3832dfde263dc254b06ac35c3e9c80b844202ee0ed0000000000000000000000000000000000000000000000000000000000003291000000000000000000000000000000000000000000000000000000096cd0e32a81eca05bb30fef6ab8df1cc49343521932c3e0608ce362d3267c7cdc7e15f7fcc547c0a07fee3d47ed594d76fb4be18adb075f313a6a399ad0ebebb8025ed25d4ceb763f","s":"0x7fee3d47ed594d76fb4be18adb075f313a6a399ad0ebebb8025ed25d4ceb763f","standardV":"0x1","to":"0xfd7bc1308a6e3832dfde263dc254b06ac35c3e9c","transactionIndex":"0x1","v":"0xec","value":"0x0"},{"blockHash":"0xbf8f5472a84b626390fdd8d3d086db7431d4b2b73fcc00651cd8b64ed924695e","blockNumber":"0xf7cfb4","chainId":"0x64","condition":null,"creates":null,"from":"0x4562845f37813a201b9ddb52e57a902659b7ae6a","gas":"0x7a120","gasPrice":"0xdf8475800","hash":"0x85fa406100f3d1530eb731697617ee73b594b2f754904288b3e573ca895a3093","input":"0x202ee0ed0000000000000000000000000000000000000000000000000000000000003a34000000000000000000000000000000000000000000000000000000560e1db1a8","nonce":"0x4f064","publicKey":"0x78a07313adbe2e1e8e09eadee442f6a995cfa466e6f97a4ac79017421d6a8e449f90b0d12fe66003a45ba998ecd69e3ea8ae49df0fe895b0f25d1a1f7ee5e7fb","r":"0xa41fbaf08585ad3d8bcd77d06f856dbf201bcad473bc7dbe6cccb33b4a99458","raw":"0xf8ae8304f064850df84758008307a1209451d2be12a980c79ccffa8cbfb078d6cad96f971f80b844202ee0ed0000000000000000000000000000000000000000000000000000000000003a34000000000000000000000000000000000000000000000000000000560e1db1a881eca00a41fbaf08585ad3d8bcd77d06f856dbf201bcad473bc7dbe6cccb33b4a99458a02f79d9a3373e24119204bd220c4f6d9c93d9a6f306d1e883ba2d3bb0286c66c4","s":"0x2f79d9a3373e24119204bd220c4f6d9c93d9a6f306d1e883ba2d3bb0286c66c4","standardV":"0x1","to":"0x51d2be12a980c79ccffa8cbfb078d6cad96f971f","transactionIndex":"0x2","v":"0xec","value":"0x0"},{"blockHash":"0xbf8f5472a84b626390fdd8d3d086db7431d4b2b73fcc00651cd8b64ed924695e","blockNumber":"0xf7cfb4","chainId":"0x64","condition":null,"creates":null,"from":"0x6a9ac738ad6b458845d15952aa15763aca4b300a","gas":"0x16e360","gasPrice":"0x165a0bc00","hash":"0x9e4805b9f78e69d4a3f2e32b2dbcdb7d11d66e3e4742b084cce3531d6a267283","input":"0xac06a96e00000000000000000000000033fbaefb2dcc3b7e0b80afbb4377c2eb64af0a3a00000000000000000000000000000000000000000000000413eccc33aa596440","nonce":"0x1bc9","publicKey":"0xcf9a81050aa6b8b4d43186ba2843d9b0ee5ecc2d9f41c1034906e9294423f428df969afcbc197b4b0ece1b8efe8db73a591507746fd14735f32865649d310ef9","r":"0x7ebd5cf119ae84a2bb79712312f26f20be0be5706c5d0b65fc23ef0f8f257dd9","raw":"0xf8ad821bc9850165a0bc008316e360945d9593586b4b5edbd23e7eba8d88fd8f09d83ebd80b844ac06a96e00000000000000000000000033fbaefb2dcc3b7e0b80afbb4377c2eb64af0a3a00000000000000000000000000000000000000000000000413eccc33aa59644081eca07ebd5cf119ae84a2bb79712312f26f20be0be5706c5d0b65fc23ef0f8f257dd9a0759bfbfc5870e4877f5df7a242eff967242468d23eb6d203aed0b1350983dd9c","s":"0x759bfbfc5870e4877f5df7a242eff967242468d23eb6d203aed0b1350983dd9c","standardV":"0x1","to":"0x5d9593586b4b5edbd23e7eba8d88fd8f09d83ebd","transactionIndex":"0x3","v":"0xec","value":"0x0"},{"blockHash":"0xbf8f5472a84b626390fdd8d3d086db7431d4b2b73fcc00651cd8b64ed924695e","blockNumber":"0xf7cfb4","chainId":"0x64","condition":null,"creates":null,"from":"0x2b9d9ddc96bc6e49bc94b6e2273621af7ec5b11e","gas":"0x1e8480","gasPrice":"0x77359400","hash":"0x2937a3bafd95acde59c764a5e16dc2a2d12ace93e9b89d9c1f2e86b07ca2376f","input":"0x5f2129080984a3a9f4001d219dc839f03a3361c9a03bdae29b5a2cd7c7942b4093acda1922b986243f83935732812890d63fec21329a20da0afc276150fe114e88f1899b0c914fa7a57d49b498622f656c4a8a0ff743cab3d4f29a84d83dedd7775c444f2bc7fbd3694ac967a1988673136923a47223d3f87b0763d51ae4e7b6245a714e302b505ef92c8305dd9851907e294ea447cdb55516229502d2724e8f168bd37a1e1b3a144e4883c2d0d0feb8c32ba310e40ef1120f1d7321d690ec406fda6abb2f1a8ce58864c5a56f75ba054b0252d4db90bca8325a210e8183daa83a9a48301ff4e0d7d88102aa5775c72dddde0cfeff1ac99b9fd2ade195a7c966b0f4608c00007164955f304949c8893f2966abe9a1a2b63c12325c71ba2d3a497697184f000066de068ce5c89af2318ade98a6caac3c55657971ce66f6b10f528336b1a8000000000000000000000000000000000000000000000000000000000000000d00000000000000000000000000000000000000000000000000000000000202cf000000000000000000000000000000000000000000000000000000000000005500000000000000000000000000000000000000000000000000000000000001a400000000000000000000000000000000000000000000000000000000000001a50000000000000000000000000000000000000000000000000000000000004000000000000000000000000000000000000000000000000000000000000000000000000000000000000000000000000000000000000000000000000000000000000000000000000000000000000000000000000000000000000000000000017ae800000000000000000000000000000000000000000000000000000000000000000000000000000000000000000000000000000000000000000000000000000000","nonce":"0x7e","publicKey":"0x04ff6376ca13fd5bd291fd01317bdc8de1b0b4199db76ccd0516bb98c3340d7c6b15db3916236cbf6b6e4d86d15da2d5d09d6e18836329daa14630d4380c75d6","r":"0xc0781bc6e0d66b0445e44f4bc513b343a0a1861d0791e27cdd976a026423afaf","raw":"0xf9030b7e8477359400831e8480941f566931438f5c8ae408a07a02502046a771fd3b80b902a45f2129080984a3a9f4001d219dc839f03a3361c9a03bdae29b5a2cd7c7942b4093acda1922b986243f83935732812890d63fec21329a20da0afc276150fe114e88f1899b0c914fa7a57d49b498622f656c4a8a0ff743cab3d4f29a84d83dedd7775c444f2bc7fbd3694ac967a1988673136923a47223d3f87b0763d51ae4e7b6245a714e302b505ef92c8305dd9851907e294ea447cdb55516229502d2724e8f168bd37a1e1b3a144e4883c2d0d0feb8c32ba310e40ef1120f1d7321d690ec406fda6abb2f1a8ce58864c5a56f75ba054b0252d4db90bca8325a210e8183daa83a9a48301ff4e0d7d88102aa5775c72dddde0cfeff1ac99b9fd2ade195a7c966b0f4608c00007164955f304949c8893f2966abe9a1a2b63c12325c71ba2d3a497697184f000066de068ce5c89af2318ade98a6caac3c55657971ce66f6b10f528336b1a8000000000000000000000000000000000000000000000000000000000000000d00000000000000000000000000000000000000000000000000000000000202cf000000000000000000000000000000000000000000000000000000000000005500000000000000000000000000000000000000000000000000000000000001a400000000000000000000000000000000000000000000000000000000000001a50000000000000000000000000000000000000000000000000000000000004000000000000000000000000000000000000000000000000000000000000000000000000000000000000000000000000000000000000000000000000000000000000000000000000000000000000000000000000000000000000000000000017ae80000000000000000000000000000000000000000000000000000000000000000000000000000000000000000000000000000000000000000000000000000000081eba0c0781bc6e0d66b0445e44f4bc513b343a0a1861d0791e27cdd976a026423afafa06ee779a5a08653c12fd37ed8e600038c118f1480e9fbac87d40aa73592d851ce","s":"0x6ee779a5a08653c12fd37ed8e600038c118f1480e9fbac87d40aa73592d851ce","standardV":"0x0","to":"0x1f566931438f5c8ae408a07a02502046a771fd3b","transactionIndex":"0x4","v":"0xeb","value":"0x0"}],"transactionsRoot":"0xb6b22fd77d444c7d1edafb39d976c70d591271e09bc5fcb37701139ca1a0a49a","uncles":[]}
